:020000040000FA
:1000000070020020C9020000D1020000D3020000EB
:10001000D5020000D7020000D90200000000000055
:10002000000000000000000000000000DB020000F3
:10003000DD02000000000000DF020000E10200001D
:10004000E3020000E3020000E3020000E30200001C
:10005000E3020000E3020000E3020000E30200000C
:10006000E3020000E3020000E3020000E3020000FC
:10007000E3020000E3020000E3020000E3020000EC
:10008000E3020000E3020000E3020000E3020000DC
:10009000E3020000E3020000E3020000E3020000CC
:1000A000E3020000E3020000E3020000E3020000BC
:1000B000E3020000E3020000E3020000E3020000AC
:1000C000E3020000E3020000E3020000E30200009C
:1000D000E3020000E3020000E3020000E30200008C
:1000E000E3020000E3020000E3020000E30200007C
:1000F000E3020000E3020000E3020000E30200006C
:10010000E3020000E3020000E3020000E30200005B
:10011000E3020000E3020000E3020000E30200004B
:10012000E3020000E3020000E3020000E30200003B
:10013000E3020000E3020000E3020000E30200002B
:10014000E3020000E3020000E3020000E30200001B
:100150000000000000000000E3020000E3020000D5
:10016000E3020000E302000000000000E3020000E0
:10017000E3020000E3020000E3020000E3020000EB
:10018000E3020000E3020000E3020000E3020000DB
:10019000E3020000E3020000E3020000E3020000CB
:1001A000E3020000E3020000E3020000E3020000BB
:1001B0000000000000000000E3020000E302000075
:1001C000E302000000000000E3020000E302000080
:1001D000E3020000E3020000E3020000E30200008B
:1001E000000000000000000000000000000000000F
:1001F00000000000E3020000E302000000F002F84B
:1002000000F052F814A696E8000CB244B344DA4564
:1002100001D100F049F8BAE80F000FA696E83000C7
:10022000A5EB040504EB0607AAEB0704A7F10107F9
:100230004FEA15154FEA3414A4F10104AC4201D37E
:1002400000F032F813F0010F18BFFB1A43F001035E
:1002500000F001F8DBE718478C0A0000AC0A000048
:10026000103A24BF78C878C1FAD8520724BF30C8E2
:1002700030C144BF04680C60704700007047000044
:100280000023002400250026103A28BF78C1FBD89F
:10029000520728BF30C148BF0B6070471FB500F040
:1002A00013FD1FBD10B510BD00F042F81146FFF759
:1002B000F5FF00F0A3FA00F060F803B4FFF7F2FFD7
:1002C00003BC00F063F80000094880470948004774
:1002D000FEE7FEE7FEE7FEE7FEE7FEE7FEE7FEE7F6
:1002E000FEE7FEE704480549034A054B7047000056
:1002F000A5070000FD010000700000207002002032
:100300007000002070477047704710B500F008F883
:10031000006810BD10B5044600F002F8046010BD7E
:10032000004870470800002000487047080000207F
:100330007546FFF7F9FFAE4605006946534620F0C3
:100340000700854618B020B5FFF7CCFFBDE8204078
:100350004FF000064FF000074FF000084FF0000B81
:10036000AC46ACE8C009ACE8C009ACE8C009ACE8F0
:10037000C00921F007018D46704710B50446AFF360
:1003800000802046BDE81040FFF797BF01491820C4
:10039000ABBEFEE7260002007047000081B000906F
:1003A000FFE70098411E009110B1FFE700BFF8E79A
:1003B00001B0704780B582B00190FFE70198411EFF
:1003C000019128B1FFE749F64040FFF7E7FFF5E765
:1003D00002B080BD83B08DF80B008DF80A10019239
:1003E0008DF803309DF80B00400041F20001C4F28B
:1003F000020108609DF80A0041F20801C4F20201FE
:10040000086041F20401C4F2020103200860FFE722
:1004100041F20400C4F202000068C00708B1FFE71F
:10042000F6E79DF80B004000013041F20001C4F2F4
:100430000201086000208DF80200FFE79DF802002D
:100440009DF8031088424DDAFFE79DF8020060B97D
:10045000FFE79DF80300012807D1FFE741F20401FF
:10046000C4F202010720086022E09DF8020038B9BA
:10047000FFE741F20401C4F202010B20086016E01C
:100480009DF802009DF803100139884207D1FFE76B
:1004900041F20401C4F202010520086006E041F2C5
:1004A0000401C4F2020109200860FFE7FFE7FFE74B
:1004B000FFE741F20400C4F202000068C00708B17F
:1004C000FFE7F6E741F20800C4F202000068019974
:1004D0009DF802208854FFE79DF8020001308DF856
:1004E0000200ABE703B0704781B08DF803008DF8D0
:1004F00002108DF801209DF80300400041F2000138
:10050000C4F2020108609DF8020041F20801C4F241
:100510000201086041F20401C4F2020103200860F4
:10052000FFE741F20400C4F202000068C00708B10E
:10053000FFE7F6E79DF8010041F20801C4F202016D
:10054000086041F20401C4F2020105200860FFE7DF
:1005500041F20400C4F202000068C00708B1FFE7DE
:10056000F6E701B07047000080B54EF20861C4F2B2
:100570000F01086840F0600008604EF22061C4F28C
:100580000F01086840F0020008604EF24061C4F2BA
:100590000F01086840F001000860FFE74EF60820F0
:1005A000C4F20F00006810F0600F01D1FFE7F5E71B
:1005B0004DF22042C4F20502106840F004001060C1
:1005C0004DF22C51C4F205010868062363F30B2099
:1005D00008604DF21C51C4F20501086840F00400A7
:1005E0000860106820F0080010604DF20042C4F26C
:1005F0000502106840F008001060086840F008002C
:10060000086000F05BF84EF22041C4F20501086872
:1006100040F0030008604EF20C51C4F20501086876
:1006200040F0020008604EF22C51C4F20501086847
:10063000222262F3070008604EF21C51C4F2050149
:10064000086840F00300086041F22001C4F2020192
:100650001020086041F20C01C4F20201072008607A
:1006600048F6C871C4F2020140F20510086048F271
:100670008001C4F202010020086048F2A002C4F226
:1006800002028C20106048F29002C4F2020241F291
:100690008730106048F29802C4F2020241F2112041
:1006A0001060086840F00100086048F20801C4F2D8
:1006B0000201086840F00400086080BD4DF2FC3182
:1006C000C4F20501086820F00800086070470000C7
:1006D0004DF2FC31C4F20501086840F008000860E2
:1006E0007047000080B584B068203B210DF10A02FC
:1006F0000623FFF76FFE9DF80C109DF80D0040EAF1
:100700000120ADF808009DF80E109DF80F0040EA9A
:100710000120ADF80600BDF9080000EE100AB8EEA1
:10072000C00ABDF9060001EE100AF8EEC10A00F099
:1007300069F99FED081A20EE010A9FED071A80EE75
:10074000010A40F26800C2F2000080ED000A04B025
:1007500080BD00BF00003443DB0F494080B582B04C
:10076000019001980021B42200F02EF80190019828
:100770004FF4C8714843800846F61741C1F2C16181
:10078000A0FB0101C82000EB91000090009941F20C
:100790008730401A48F29801C4F20201086002B0A2
:1007A00080BD00004EF68851CEF20001086840F48A
:1007B0007000086040F20001C2F2000142F2004005
:1007C000C0F2F4000860704784B00290019100927A
:1007D00002980199884203DAFFE7019803900AE042
:1007E00002980099884203DDFFE70098039002E039
:1007F00002980390FFE7039804B0704780B58EB06D
:10080000002004900D90FFF7AFFEFFF757FF5A202E
:100810000390FFF7A3FF4FF4C870FFF7CBFD1E2036
:10082000FFF79CFF4FF416700290FFF7C3FD962070
:10083000FFF794FF0298FFF7BDFD0398FFF78EFFC7
:100840000298FFF7B7FD049A68206B21FFF74CFE72
:100850003220FFF7AFFD0398FFF780FFFFF72EFF71
:100860004FF4FA60FFF7A6FD04980C90FFE70C9890
:100870001D280ADCFFE7FFF735FF0A20FFF79AFD86
:10088000FFE70C9801300C90F1E700200B900A90E4
:10089000FFE70A98952816DCFFE7FFF723FF40F2F1
:1008A0006800C2F2000090ED001A9DED0B0A30EED8
:1008B000010A8DED0B0A0A20FFF77CFDFFE70A987D
:1008C00001300A90E5E79DED0B0A9FED431A80EE9B
:1008D000010A40F26C00C2F2000080ED000A40F212
:1008E0000401C2F200015A200860FFE7FFF7FAFE98
:1008F00040F26800C2F2000090ED000A40F26C0085
:10090000C2F2000090ED001A30EE410A8DED090AA6
:100910009DED090AB0EEC00A8DED080A9DED080AAA
:10092000B2EE081AB4EE410AF1EE10FA16DAFFE759
:10093000FFF7C4FE40F20400C2F2000000685A282B
:100940000BD0FFE75A200190FFF708FF019840F213
:100950000401C2F200010860FFE739E0FFF7B8FECA
:100960009DED090A30EE000ABDEEC00A8DED070AC2
:1009700007986FF027012822FFF726FF07900798B6
:100980005A30069006982D218722FFF71DFF06900A
:10099000069840F20401C2F200010968401A05906D
:1009A0000598B0F1FF3F04DCFFE705984042059051
:1009B000FFE7059802280ADBFFE70698FFF7CEFE5F
:1009C000069840F20401C2F200010860FFE7FFE769
:1009D0003C20FFF7EFFC89E70000164341000802C6
:1009E00018BF04200A0E18BF40F001004FF07F42EC
:1009F00032EA010108BF40F00200012808BF0520CB
:100A00007047000070B54FF068422DED048BF0EE9A
:100A1000408A18EE900AB0EE608A18EE101A02EBC7
:100A20004003B3F1654F3CBF02EB4102B2F1654FA9
:100A30007DD200BFC0F3C753C1F3C7529A1A1B2A15
:100A400009DD10F0004F14BF9FED830A9FED830A6C
:100A5000BDEC048B70BD12F11A0F36DA11F0004FA5
:100A600009D010F0004F0CBF9FED7D0A9FED7D0A6D
:100A7000BDEC048B70BD88EE889A19EE100AFFF762
:100A8000ADFF042808BF00F017F918EE900AFFF731
:100A9000A5FF054618EE100AFFF7A0FF044619EE61
:100AA000100AFFF79BFF042D18BF052D08D1042C59
:100AB00018BF052C04D1002804BF0220FFF72AFC30
:100AC000B0EE490ABDEC048B70BD4200B2EB410FA1
:100AD0003AD910F0004F19BFDFED630A9FED630AAA
:100AE000DFED630A9FED630AB0EE481A0A46B1EEE5
:100AF000688A80F00041F0EE418A10460A1A5200DE
:100B0000B2F1807F34D2484010F0004FDFED5A1A26
:100B10009FED5A2A1DBFBEEE001A70EEE10A30EEBC
:100B2000420AB6EE001A08BF70EEA10A00E040E0EB
:100B300008BF30EE020AB0EE682A01EE482A08EE3D
:100B4000818AC2EE081A15E011F0004F04BF9FED34
:100B50004C0AF0EE400AD1D010F0004F19BFDFED83
:100B6000490A9FED490ADFED490A9FED490AC5E7A9
:100B7000C8EE881A21EEA11A9FED462ADFED462A1B
:100B800041EE022A9FED452A01EE222ADFED442A9A
:100B900041EE022A9FED432ABDEC048B01EE222A8E
:100BA00021EE811A01EE020A30EE210A30EE200A0F
:100BB00070BD4FF07F42B2EB400F28BFB2EB410F48
:100BC00009D2F0EE480AB0EE680ABDEC048BBDE82D
:100BD000704000F06DB840EA01035B0008BF41F0CF
:100BE000FF410BD0B2EB400F08BFB2EB410F08D171
:100BF00020F0804008EE900A21F0804108EE101AA3
:100C000018E7B2EB400F12BF5FEA410340F0FF402C
:100C100001F000413FF40EAFB2EB410F12BF5FEAAB
:100C2000400200F0004041F0FF413FF403AF4A00B2
:100C300092EA40033FF5FEAE002AACBF9FED1A0AD0
:100C40009FED1A0A68EE808A28EE008A18EE900A54
:100C500018EE101AEEE60000DB0FC9BFDB0FC93F2C
:100C6000DB0F4940DB0F49C00000C9BF22AAFDB914
:100C70000000C93F22AAFD390060ED3EC30ACE370D
:100C800000000000000049C022AA7DBA00004940CF
:100C900022AA7D3A2DAD65BD8FB8D53D0FB511BEE9
:100CA00061C84C3EA8AAAABE0000804F0000802F59
:100CB00030EE200A704700009FED020A20EE000A85
:100CC0007047000000000010F1EE100A4FF6FF71AF
:100CD000C0F2C03120EA010040F04070E1EE100A9D
:100CE00070470000040D0000000000200800000014
:100CF000600200000C0D00000800002068020000E7
:0C0D0000800200000024F4005A000000F3
:04000005000002C92C
:00000001FF
